:100000000C944A000C9456000C946F000C948800D9
:100010000C94E6000C94E6000C94E6000C94E600C8
:100020000C94E6000C94E6000C94E6000C94E600B8
:100030000C94E6000C94E6000C94E6000C94E600A8
:100040000C94E6000C94E6000C94E6000C94E60098
:100050000C94E6000C94E6000C94E6000C94E60088
:100060000C94E6000C94E6000C94E6000C94E60078
:100070000C94E6000C94E6000C94E6000C94E60068
:100080000C94E6000C94E6000C94E6000C94E60058
:100090000C94E60011241FBECFEFD0E1DEBFCDBF30
:0C00A0000E94A1000C94C600F894FFCF51
:1000AC001F920F920FB60F9211248F939F9382B3CE
:1000BC0093B3806293BB82BB87EA91E60197F1F719
:1000CC0000C000009F918F910F900FBE0F901F905A
:0200DC00189575
:1000DE001F920F920FB60F9211248F939F9382B39C
:1000EE0093B3806493BB82BB87EA91E60197F1F7E5
:1000FE0000C000009F918F910F900FBE0F901F9028
:02010E00189542
:100110001F920F920FB60F9211248F939F9382B369
:1001200093B3806893BB82BB87EA91E60197F1F7AE
:1001300000C000009F918F910F900FBE0F901F90F5
:02014000189510
:100142000E94DB000E94E1000E94B6000E94D100E2
:1001520082B393B393BB82BB82B393B393BB82BB91
:0A01620082B393B393BB82BBF3CFCB
:10016C008BB79CB780629CBF8BBF8BB79CB78064EE
:10017C009CBF8BBF8BB79CB780689CBF8BBF08950F
:10018C00EC010E94EB000E94EA00CE010E94EC0000
:06019C00CE010E94E80004
:1001A2008AB180628AB98AB180648AB98AB1806868
:0401B2008AB9089569
:0C01B60085B796B78D6096BF85BF089591
:0A01C20084B795B795BF84BF089578
:0401CC000C9400008F
:0401D0000E94540035
:0201D40008958C
:0201D60008958A
:0201D800089588
:00000001FF
